:100000000C9403010C942B010C942B010C942B01E8
:100010000C942B010C942B010C942B010C942B01B0
:100020000C942B010C942B010C94490B0C94BB0BDE
:100030000C942B010C942B010C942B010C942B0190
:100040000C942B010C942B010C942B010C942B0180
:100050000C942B010C942B010C942B010C94781113
:100060000C942B010C942B010C942B010C942B0160
:100070000C942B010C942B010C942B010C942B0150
:100080000C942B010C942B010C942B010C942B0140
:100090000C9468060C942B010C942B010C942B01EE
:1000A0000C942B010C9417060C942B016B0E6E0E06
:1000B0005D0E610E670E8F0E8F0E8F0E720E760E16
:1000C0007A0E800E840E8F0E8A0E50726573732026
:1000D0004100080B000202020100090400000102B5
:1000E000020000052400100105240101010424027E
:1000F00006052406000107058103100040090401DC
:1001000000020A0000000705020240000007058304
:10011000024000000403090412010002EF02014042
:10012000FB1F0023000101020301506F6C6F6C750F
:1001300020436F72706F726174696F6E00506F6CE4
:100140006F6C7520412D5374617220333255340029
:1001500000000000240027002A002D0030000000CD
:100160000000250028002B002E00310000000000B8
:100170002300260029002C002F000404040404039B
:100180000405020202020403020202020606060637
:10019000060604040202020404040802011040805E
:1001A000401020408040800802040180402010025E
:1001B00001108010204040200000000200090F00C4
:1001C00000030401000C000000000000000000001B
:1001D000000000000000004F342054313030205621
:1001E0003135204C34204D53206731323E6331325B
:1001F0003E6531323E47363E453132204D4C3E471A
:1002000032001712C21111241FBECFEFDAE0DEBF99
:10021000CDBF11E0A0E0B1E0E8E4F2E302C0059058
:100220000D92A839B107D9F723E0A8E9B1E001C0E0
:100230001D92A536B207E1F711E0C2E0D1E004C09B
:100240002197FE010E94DC17C130D107C9F70E9437
:100250009D120C9417190C94000080914703E091B3
:100260004803F0914903882311F0849101C08081F3
:100270009FEB980F9A3110F4805E0895803269F4F4
:100280002091480330914903A9014F5F5F4F50937C
:10029000490340934803232B01F708951F93CF93FD
:1002A000DF930E942D01C0E0D0E01AE090ED980F9E
:1002B0009A30B8F41C9F90011D9F300D1124E90164
:1002C000C80FD11D87FDDA95E09780914803909182
:1002D0004903019690934903809348030E942D019E
:1002E000E5CFCE01DF91CF911F9108952F923F92DC
:1002F0004F925F926F927F928F929F92AF92BF9236
:10030000CF92DF92EF92FF920F931F93CF93DF93E1
:10031000CDB7DEB727970FB6F894DEBF0FBECDBFBF
:100320009F838E831B014D838091DB0181111BC054
:1003300081E08093DB01109272001092C00094E083
:100340009093C10099E09093C2008093C30083E032
:100350008093BF0088EE8093D1001092BF0010926E
:10036000D200579A7894109215012E813F8137FF61
:1003700005C03F773F832E830AE001C001E088E299
:10038000089F802D112490E04E815F814817590706
:1003900008F4C2C0013039F44131574220F020E165
:1003A00037E23F832E83402E512C612C712C8E819D
:1003B0009F81969587959C0140E050E029833A8380
:1003C0004B835C834E815F814A01A12CB12CA30138
:1003D000920160E072E18AE790E00E94981729811B
:1003E0003A814B815C81620F731F841F951FA501A9
:1003F00094010E94351769017A01EE24FF2410E070
:100400001F5FC11434E0D306E104F10408F120E0D9
:1004100032E14AE750E0012E04C0559547953795E3
:1004200027950A94D2F7C301B2010E949817298137
:100430003A814B815C81620F731F841F951FA50158
:1004400094010E94351769017A01EE24FF24D8CF68
:100450000A3049F48E819F8105966AE070E00E941F
:10046000B4177F836E834E815F81483E83E05807D7
:1004700059F09101DA010E94891728EE33E040E03B
:1004800050E00E9435171901109272008091C1004E
:10049000807F182B1093C100BB27AF2D9E2D8D2D73
:1004A0008093BF00C092D1002D81203108F02FE051
:1004B00080E190E0821B910904C0F694E794D79400
:1004C000C7948A95D2F78D2D99278093BF00C0924B
:1004D000D2003092DD012092DC0189B38FEF89BB1D
:1004E00084E08093720027960FB6F894DEBF0FBEAB
:1004F000CDBFDF91CF911F910F91FF90EF90DF90D3
:10050000CF90BF90AF909F908F907F906F905F90B3
:100510004F903F902F9008959F838E8344CFCF9329
:10052000DF93EB018F3F11F0411105C040E0BE01A8
:1005300088EE93E042C0813130F020EF280F203662
:1005400018F02FE501C020E0822F6CE00E94A81770
:1005500030E09CE0899F2019310911242C303105AD
:1005600040F4220F331FF901E05EFE4F20813181FC
:1005700002C020E030E0873081F0082E02C0220F58
:10058000331F0A94E2F7823028F0C90105966AE029
:1005900070E00CC0C90190580CC0C90126E0880F5A
:1005A000991F2A95E1F7029665E070E00E94B41762
:1005B000CB01403108F04FE0BE01DF91CF910C94A8
:1005C000760185ED8093BC008091BC0084FDFCCF5A
:1005D0001092380208954091B801262F30E0240F80
:1005E000311D21323105DCF4209138022430C9F468
:1005F000FC0180E090E0861758F43091B801219119
:10060000DC01A856BE4FA30FB11D2C930196F3CF6A
:100610008091B801680F6093B80180E0089581E08F
:10062000089582E00895089508950895E091F101F4
:100630008091F001E81730F4F0E0EE50FE4F808139
:1006400090E008958FEF9FEF08959091F1018091D0
:10065000F001981750F4E92FF0E0EE50FE4F2081A2
:1006600030E09F5F9093F10102C02FEF3FEFC9018F
:1006700008958091F00190E02091F101821B910991
:100680000895CF92DF92EF92FF920F931F93CF9333
:10069000DF937C01CB018A0120913902222389F06A
:1006A000EB016B01C40ED51ECC15DD0569F0699117
:1006B000D701ED91FC910190F081E02DC7010995E2
:1006C000F3CF642F0E94EB02C801DF91CF911F91FD
:1006D0000F91FF90EF90DF90CF900895CF93DF932D
:1006E0001F92CDB7DEB76983209139022223D1F062
:1006F00020915C02203240F021E030E0FC013383A5
:10070000228380E090E015C080913A02E82FF0E06B
:10071000E55CFD4F998190838F5F80933A028093CF
:100720005C0205C061E0CE0101960E94EB0281E00F
:1007300090E00F90DF91CF9108955B98539A0895C0
:10074000089580E090E008950F931F93CF93DF9377
:10075000CDB7DEB727970FB6F894DEBF0FBECDBF7B
:100760006E833091E2003F831092E2001091E90025
:100770001092E9000091F0001092F00030E05A99D8
:10078000316052993260398330E02B99316023997E
:1007900032603A8330E028993160209932603B839F
:1007A00030E0479931603F9932603C8330E05D9999
:1007B0003160559932603D83442311F05A9A01C04B
:1007C0005A98529A211105C08E8182958F700E948D
:1007D000900E8E818F700E94900E2D8121FB0EF065
:1007E000559820FB0EF05D980EF45D9A21FB0EF4F7
:1007F000559A3C8131FB0EF03F9830FB0EF0479844
:100800000EF4479A31FB0EF43F9A2B8121FB0EF038
:10081000209820FB0EF028980EF4289A21FB0EF465
:10082000209A3A8131FB0EF0239830FB0EF02B9882
:100830000EF42B9A31FB0EF4239A298121FB0EF042
:10084000529820FB0EF05A980EF45A9A21FB0EF49F
:10085000529A1092E9000093F0001093E9003F8152
:100860003093E20027960FB6F894DEBF0FBECDBFDF
:10087000DF91CF911F910F910895FF920F931F93D6
:10088000CF93DF93EC01162F042FF22E8C81811170
:100890004DC081E08C83E881F9810084F185E02DF1
:1008A000CE01099521E040E063E0CE010E943D04C5
:1008B0008FE991E40197F1F700C0000021E040E0EA
:1008C00063E0CE010E943D0487E592E00197F1F7D5
:1008D00000C0000021E040E063E0CE010E943D0442
:1008E00021E040E062E0CE010E943D0420E040E0D3
:1008F00068E2CE010E943D0420E040E068E0CE01C5
:100900000E943D041D82CE010E94470E20E040E07F
:1009100066E0CE010E943D0482E08E8320E040E04C
:100920006CE0CE010E943D0484E08D83E881F98172
:100930000284F385E02D2F2D402F612FCE010995E4
:1009400095EC9A95F1F70000DF91CF911F910F91EF
:10095000FF9008956F927F928F929F92AF92BF9275
:10096000CF92DF92EF92FF920F931F93CF93DF937B
:10097000909008018091DE01882321F08091460348
:1009800081113CC17724739440ECA42E4DE5B42E24
:100990005AE0652E64E0862E70EDC72E77E0D72EE4
:1009A000E4E0EE2EF12C04EF11E0CFE0D0E00E9465
:1009B0002D0120914803309149032F5F3F4F309321
:1009C000490320934803853609F45FC07CF58136DE
:1009D00009F49EC024F58C3309F452C08E3309F417
:1009E0004DC0813209F08FC080920801D09205017C
:1009F000C0920401F0920701E092060110930301F6
:100A000000930201D0930101C09300011092DE0116
:100A1000909008018091020190910301C8CF833624
:100A200009F479C07CF5D0E08BE077C08D36B1F168
:100A30006CF4873681F164F18C3609F064C00E9451
:100A40004E0190930701809306014EC08237D9F181
:100A50004CF48F3609F057C00E944E01982E8093B7
:100A60000801A5CF843789F1863709F04CC00E9470
:100A70004E01909301018093000199CF939497CFF9
:100A80009A9495CFD0E082E048C0D0E084E045C0A1
:100A9000D0E085E042C0D0E087E03FC00E942D0159
:100AA0008C3619F41092DE0104C07092DE011092AF
:100AB000460380914803909149030196909349031E
:100AC0008093480374CFD1E027C00E944E01BC013F
:100AD000C5010E94B417669EC001679E900D112447
:100AE0009093050180930401809104019091050188
:100AF00060910601709107010E94B4177093030181
:100B00006093020154CF109249031092480380C0B1
:100B1000D0E089E002C0D0E080E0C82F9CE0999E40
:100B2000C00D11240E942D01982F977F933259F404
:100B300080914803909149030196909349038093D3
:100B40004803CF5FEFCF8D3269F4809148039091D5
:100B5000490301969093490380934803C1500E9432
:100B60002D01F1CF009102011091030181538830D2
:100B700058F400910401109105010E944E01BC013E
:100B8000C8010E94B4178B017801F694E7940E9483
:100B90002D018E3261F480914803909149030196B2
:100BA00090934903809348030E0D1F1DEECF809153
:100BB000DE01882349F0C801969587958093460306
:100BC00080914603081B11094091000150910101D9
:100BD000DD2311F08FEF01C08C2FB801DF91CF9191
:100BE0001F910F91FF90EF90DF90CF90BF90AF904B
:100BF0009F908F907F906F900C948F02609146032E
:100C000070E040E088EE93E00E9476011092460387
:100C1000DF91CF911F910F91FF90EF90DF90CF90D8
:100C2000BF90AF909F908F907F906F9008951F928C
:100C30000F920FB60F9211242F933F934F935F9310
:100C40006F937F938F939F93AF93BF93EF93FF9394
:100C50008091DC019091DD019C012150310930939C
:100C6000DD012093DC01892B11F51092720078943C
:100C70008091C100807F84608093C10083E0809375
:100C8000BF0088EE8093D1001092BF001092D20076
:100C900081E0809315018091480390914903892B4D
:100CA00031F080914503811102C00E94AA04FF9196
:100CB000EF91BF91AF919F918F917F916F915F91D4
:100CC0004F913F912F910F900FBE0F901F9018954D
:100CD0001F920F920FB60F9211242F933F934F93B1
:100CE0005F936F937F938F939F93AF93BF93EF9394
:100CF000FF938091B900887F803609F49CC068F525
:100D0000883209F45BC090F4803109F454C038F49F
:100D1000882309F4F6C0883009F44DC0F6C0883144
:100D200009F44CC0803209F45DC0EFC0803409F48E
:100D300068C048F4803309F455C0883309F0E5C031
:100D400080933602D8C0803509F44FC0883509F445
:100D50005DC0883409F0D9C0D6C0883909F4C7C04D
:100D6000A8F4883709F467C038F4883609F463C0FA
:100D7000803709F460C0C9C0883809F4B8C0803928
:100D800009F45FC0803809F0C0C05BC0803B09F443
:100D900086C038F4803A09F466C0883A09F47FC006
:100DA000B4C0803C09F4A7C0883C09F4A4C0883BC7
:100DB00009F48AC0AAC08091130210C09091350234
:100DC00080913402981770F5E091350281E08E0F22
:100DD00080933502F0E0EC5EFD4F80818093BB0094
:100DE00085EC86C0809336028EC0E091350281E0AA
:100DF0008E0F809335028091BB00F0E0EC5EFD4FDA
:100E0000808390913502809134026EC0E09135026A
:100E100081E08E0F809335028091BB00F0E0EC5EA4
:100E2000FD4F80838091370281116DC081E08093F6
:100E3000120284EA61C083E0809338021092DA01E2
:100E4000CFCF8091DA01803208F051C0E091DA0111
:100E500081E08E0F8093DA018091BB00F0E0E654D0
:100E6000FE4F8083BDCF85EC8093BC00109238028A
:100E70008091DA01803230F4E091DA01F0E0E6545A
:100E8000FE4F10826091DA0170E0E0914103F09131
:100E900042038AEB91E009951092DA0136C084E0B2
:100EA000809338021092B9011092B801E091430387
:100EB000F091440309958091B801811105C081E04A
:100EC0008093B80110929801E091B90181E08E0FF2
:100ED0008093B901F0E0E856FE4F80818093BB001B
:100EE0009091B9018091B801981708F479CF85E8FD
:100EF0008093BC000AC085EC8093BC00109238023D
:100F000004C0109236020E94E102FF91EF91BF915E
:100F1000AF919F918F917F916F915F914F913F9191
:100F20002F910F900FBE0F901F901895FC014085D8
:100F30005185A481B581AA0FBB1FA40FB51F86815F
:100F400097812D913C911197821B930B97838683F8
:100F50006D937C93848195819C01220F331FDA016C
:100F6000A20FB31F468157812D913C91240F351F4D
:100F7000378326830196958384832081318182176C
:100F8000930711F41582148282819381821793074B
:100F90001CF40196938382830895CF93DF93289A5C
:100FA000209A479A3F9A8CED92E00E94470EEAEC15
:100FB000F0E06491EF012196662341F020E041E0EA
:100FC0008CED92E00E943D04FE01F3CF80ED92E0B3
:100FD0000E94630A8823D1F36AE070E080E090E029
:100FE0000E94B91080ED92E00E94630A882371F399
:100FF0000E94F31047983F9A8CED92E00E94470EB2
:10100000C3E0D0E068EE73E080E090E00E94B910A9
:101010004CE062E370E08BE20E948F02219791F72F
:1010200068EE73E080E090E00E94B91010927200C8
:1010300087ED91E0909349038093480381E080938A
:101040004703109246030E94AA0468EE73E080E012
:1010500090E00E94B91010924A0310924B03109234
:101060004C0310924D030E9406116093600270932E
:101070006102809362029093630210925E0210926A
:101080005D0210924E0310924F0310925003109283
:101090005103DF91CF9108954091E2015091E30116
:1010A0002091E0013091E10142175307B4F490918F
:1010B000E8009570E1F39091E80092FD19C08093EB
:1010C000F1008091E2019091E30101968F739927DD
:1010D000892B19F48EEF8093E8008091E2019091C2
:1010E000E30101969093E3018093E20181E008958A
:1010F00080E00895DF92EF92FF920F931F93CF93BA
:10110000DF93D82EF92EE42E062F10E0C8010196A9
:10111000880F0E944C0883E00E944C08CD2DDF2DE3
:101120000C0F1D1FC017D10789F0E7FE03C0FE0199
:10113000849101C088810E944C08F82E80E00E94B2
:101140004C088F2121968111EDCF01C081E0DF9104
:10115000CF911F910F91FF90EF90DF900895DF9254
:10116000EF92FF920F931F93CF93DF93D82E8A01B4
:101170007B01E40EF51EEB01CE15DF0571F0D7FE05
:1011800003C0FE01849101C088810E944C08219611
:101190008111F2CF8FEF9FEF01C0C801DF91CF9196
:1011A0001F910F91FF90EF90DF900895615030F004
:1011B0002091F100FC0120830196F8CF289884E665
:1011C0008093EE010895CF92DF92EF92FF920F93FA
:1011D0001F93CF93DF936C017A018B01C0E0D0E0C5
:1011E000CE15DF0581F0D8016D918D01D601ED910D
:1011F000FC910190F081E02DC6010995892B11F039
:101200002196EECF7E01C701DF91CF911F910F9103
:10121000FF90EF90DF90CF900895CF93DF931F92D0
:10122000CDB7DEB76983DC01ED91FC910280F381DB
:10123000E02D41E050E0BE016F5F7F4F09950F90B8
:10124000DF91CF91089583E08093E9008091F200CF
:10125000882319F08AE38093E8000895FC018485CF
:10126000958597FD0BC09FB7F89482E08093E900C5
:101270008091F2009FBF90E0019608959FB7F89487
:1012800082E08093E9008091F2009FBF90E0089592
:101290002E98269A2D98259A2A98229A2998219A4A
:1012A00080EA8093800081E18093810080E991E071
:1012B0009093870080938600109289001092880096
:1012C00010928B0010928A0008950F931F93CF9372
:1012D000DF931F92CDB7DEB782E0898342E450E00E
:1012E00062ED70E080E80E94AF080E94DB0FDC0135
:1012F00012960D911C9113970115110589F0D801D3
:10130000ED91FC910280F381E02DBE016F5F7F4F74
:10131000C801099597FD04C0F80100851185ECCF3F
:1013200089810F90DF91CF911F910F9108958F9236
:101330009F92AF92BF92CF92DF92EF92FF920F9364
:101340001F93CF93DF936C017B018A01809114017D
:10135000882309F45CC08091EF01882309F457C009
:1013600080913F0380FF05C08091E0008260809300
:10137000E000E801B12C8AEFA82E93E0892E2AE341
:10138000922E209711F4BB20D9F10E94CA0F81112F
:101390000AC0AA94AA20D9F161E070E080E090E050
:1013A0000E94B910EECF282F30E0C217D3070CF4FB
:1013B0008C2F9FB7F8948092E9002091E80025FFD8
:1013C0001DC0282F30E0C21BD30BF701815020F045
:1013D00041914093F100FACFE20EF31EBB2019F0C9
:1013E0009092E8000AC08091E80085FD07C09092C5
:1013F000E800BB24B394209709F0B12C9FBFC1CF64
:101400005D9884E68093E5011016110644F081E0B2
:1014100090E0F6019383828380E090E001C0C801F0
:10142000DF91CF911F910F91FF90EF90DF90CF90C0
:10143000BF90AF909F908F9008950E94CA0F90E048
:1014400008950F931F93CF93DF931F92CDB7DEB70D
:101450008C01FC018485958597FF0EC0CE01019615
:101460000E949C0F019719F4898190E002C08FEFD0
:101470009FEFF80195878487F801848595850F9003
:10148000DF91CF911F910F910895CF93DF931F921A
:10149000CDB7DEB7FC018485958597FD05C02FEF9C
:1014A0003FEF358724870BC0CE0101960E949C0F29
:1014B000019719F4898190E002C08FEF9FEF0F90A0
:1014C000DF91CF910895CF93DF93EC01888581114F
:1014D0000FC081E088878A85882311F062E001C00F
:1014E00060E089850E9447108FE090E00197F1F756
:1014F00089850E94EF0F2B8530E041E028173907DE
:1015000009F440E0842FDF91CF9108957F928F926C
:101510009F92AF92BF92CF92DF92EF92FF920F9382
:101520001F93CF93DF93FC0122853385232B09F48E
:1015300079C06B01EC01F12C8C85F816F0F40F2DBD
:1015400010E08E859F85F801EE0FFF1FEC0DFD1D4D
:1015500091838083EA85FB85E00FF11F61E0808144
:101560000E9418108A859B85FC01E00FF11F61E045
:1015700080810E944710F394DFCF83E290E00197CF
:10158000F1F710E08C851817A8F4E12EF12CEA850C
:10159000FB85EE0DFF1D60E080810E9447108A856B
:1015A0009B85FC01EE0DFF1D60E080810E941810FC
:1015B0001F5FE8CF0E9494104B015C010E949410C1
:1015C000AB01BC01481959096A097B098E859F85C1
:1015D000A0E0B0E0481759076A077B0718F50E949A
:1015E00094107B01E818F908712C8C85781630F777
:1015F000072D10E0EA85FB85E00FF11F80810E9436
:10160000EF0F892B51F4000F111FF601E00FF11FAE
:1016100080819181E816F90610F07394E6CFF1828B
:10162000E082FBCFDF91CF911F910F91FF90EF9060
:10163000DF90CF90BF90AF909F908F907F90089554
:1016400020E041E00E943D0481E090E00895CF92C7
:10165000DF92EF92FF920F931F93CF93DF937C0162
:101660008A01EB016B01C40ED51ECC15DD0539F0E6
:10167000699120E041E0C7010E943D04F6CFC80116
:10168000DF91CF911F910F91FF90EF90DF90CF905E
:1016900008951F920F920FB60F9211248F939F936C
:1016A0008091E1009091E100937F9093E10083FFAE
:1016B0000FC01092E90091E09093EB001092EC00C3
:1016C00092E39093ED001092EF0198E09093F00078
:1016D00082FF20C093E09093E9009091F20099235B
:1016E00019F09AE39093E8009091E501992339F07D
:1016F0009091E50191509093E501992389F19091A2
:10170000EE01992339F09091EE0191509093EE0102
:10171000992341F184FF10C08091E2008E7E8160A8
:101720008093E2008091E1008F7E8093E1008091C0
:101730003F038E7E806111C080FF16C08091E20061
:101740008E7E80618093E2008091E1008E7E8093A6
:10175000E10080913F038E7E816080933F0304C04F
:101760005D9ACDCF289AD6CF9F918F910F900FBEC3
:101770000F901F9018951F920F920FB60F92112481
:10178000CF92DF92EF92FF920F931F932F933F938D
:101790004F935F936F937F938F939F93AF93BF9379
:1017A000EF93FF93CF93DF93CDB7DEB76C97DEBF98
:1017B000CDBF1092E9008091E80083FFFBC168E093
:1017C000CE0145960E94D60882EF8093E8008D896D
:1017D00087FF05C09091E80090FFFCCF03C09EEF0B
:1017E0009093E800982F907609F0C6C09E894F89A3
:1017F000588D2F89F88C91110CC0803829F4809174
:1018000040038093F10002C01092F1001092F100A9
:1018100045C1913051F4811141C14130510509F068
:101820003DC1809140038D7F0BC0933061F48111E5
:1018300035C14130510509F031C1809140038260CA
:10184000809340032BC1953049F48091E80080FFDC
:10185000FCCF822F80688093E30020C1963009F08E
:101860005EC00B8D1C8D22E01092E9001092E30106
:101870001092E201F21232C01092E1011092E001E6
:101880000E94650999E0BE016F5F7F4FDB01E92F80
:101890001D92EA95E9F79983FA8291E09E8390EA96
:1018A00098879AEF99872091E2013091E301275FB1
:1018B0003F4F3C832B838D831092E9001092E3010C
:1018C0001092E2011093E1010093E00149E050E041
:1018D00080E00E94AF080E946509E0C01093E1011A
:1018E0000093E0010E94DB0FDC0112960D911C9128
:1018F00013970115110509F4BBC0D801ED91FC91B6
:101900000480F581E02DBE016B5E7F4FC801099513
:10191000009709F0C7C0F80100851185EACF97301C
:1019200009F445C1983021F481E08093F100B6C0FC
:10193000993009F0B3C0837009F039C1E9E3F1E0EF
:1019400081E031E096E32081211109C08EE7809388
:10195000EA001092EA008F898093EF019FC0809384
:10196000E9003093EB0021912093EC009093ED007F
:101970008F5F873041F7EACF8B8D9C8D1092E90005
:101980001092E3011092E2019093E1018093E00153
:10199000898D811153C08E899D89913A49F4813294
:1019A00009F005C147E050E06DE071E080E0BBC0A8
:1019B000913209F0FCC0833269F48F89988DA0E0E0
:1019C000B0E08093090190930A01A0930B01B093BA
:1019D0000C0164C0803269F48091E80082FFFCCF82
:1019E00067E08DE091E00E94D6088BEF8093E800DD
:1019F00055C0823209F052C08F8980931401EEEFF6
:101A0000FFE7859194918B3F9C4D19F0E0E0F8E061
:101A100002C0EEEFFAE080910D0190910E01A091CD
:101A20000F01B0911001803B9440A105B10509F070
:101A30009EC08091140180FF79C099C00E94DB0F85
:101A4000FC01028113810115110509F4B0C0D80110
:101A5000ED91FC910190F081E02DBE016B5E7F4F16
:101A6000C801099581111AC0F80100851185EBCFD5
:101A7000F1E0FF1609F44EC0F3E0FF1298C08F8921
:101A8000882309F44AC0823089F440E862E18DE39A
:101A900091E00E947A08882309F489C08EEF809330
:101AA000E80088C018161906CCF381C0813029F4EB
:101AB00040E862E18AE291E0ECCF833009F077C040
:101AC0000E94DB0FDC011296ED90FC9013978E01C3
:101AD0000F5F1F4F6801E114F10479F0D701ED9118
:101AE000FC910680F781E02DB801C7010995080F28
:101AF000111DF701E084F184EECFD8011C92F601AC
:101B000001900020E9F73197BF016C197D0940E091
:101B1000C601BFCF68E171E002C064E171E0FB0182
:101B2000449150E080E80E94AF08B8CFEE3F2AE031
:101B3000F20751F0808191818737A7E79A0721F05A
:101B40009093FF0A8093FE0A87E797E7918380834B
:101B5000809160008093E4019BE088E10FB6F894E7
:101B6000A895809360000FBE9093600097CF80810E
:101B700091818737974709F091CFA89580916000B0
:101B80008861809360008091E40180936000EE3F63
:101B9000BAE0FB0739F08091FE0A9091FF0A918329
:101BA00080837CCF1092FF0A1092FE0A77CF81E2E9
:101BB0008093EB006C960FB6F894DEBF0FBECDBFDE
:101BC000DF91CF91FF91EF91BF91AF919F918F9155
:101BD0007F916F915F914F913F912F911F910F9145
:101BE000FF90EF90DF90CF900F900FBE0F901F905F
:101BF0001895CF93DF93EC018091DF01811105C02F
:101C000081E08093DF010E944809D7FF05C0D1958C
:101C1000C195D10981E001C080E0C13991E0D907C7
:101C200014F0C0E9D1E0D0938900C09388008823E4
:101C300011F0299A01C02998219ADF91CF91089536
:101C4000CF93DF93EC018091DF01811105C081E02A
:101C50008093DF010E944809D7FF05C0D195C19547
:101C6000D10981E001C080E0C13991E0D90714F0C9
:101C7000C0E9D1E0D0938B00C0938A00882311F093
:101C80002A9A01C02A98229ADF91CF91089520E0E4
:101C900040E061E00E943D048FE39FE10197F1F78E
:101CA00000C00000089590E0FC013197EF30F1058D
:101CB000B0F5EA5AFF4F0C94DC17809180008F77C3
:101CC00003C0809180008F7D809380000895809173
:101CD0008000877FF9CF84B58F7702C084B58F7D70
:101CE00084BD0895809190008F7707C08091900007
:101CF0008F7D03C080919000877F8093900008952E
:101D00008091C0008F7703C08091C0008F7D809349
:101D1000C00008958091C200877F8093C20008951B
:101D200080FF02C02B9A01C02B98239A81FF02C02A
:101D3000289A01C02898209A82FF02C0479A01C0C1
:101D400047983F9A83FF02C05D9A01C05D98559AFB
:101D50005B9A539A85E08A95F1F700005B98539A55
:101D600085E08A95F1F700000895282F30915C02F4
:101D7000313208F04AC0809138028111FCCF909135
:101D80005B0242E040933802209337022FEF20930A
:101D900036021092350230933402EBE3F2E0A4E114
:101DA000B2E020E0321721F041914D932F5FFACF3E
:101DB0001092130220911302990F922B9093130209
:101DC00090911202913061F41092120290911302DC
:101DD0009093BB009091BC0093FDF8CF95EC01C0AF
:101DE00095EE9093BC00909138029230E1F390917F
:101DF00036029F3F79F080913602803241F0809127
:101E00003602803331F084E005C081E003C082E017
:101E100001C083E010923A0210925C0210923902E3
:101E200008951F93CF93DF93162FC0E7D2E09B8DC9
:101E300021E02093390290935B0210923A021092B3
:101E40005C02682F84E692E00E946E03612F84E6B4
:101E500092E00E946E0381E00E94B50E888FDF91B0
:101E6000CF911F910895909138029111FCCF91E08C
:101E700090933802909337022FEF209336021092FE
:101E80003502260F2093340290931302909113028F
:101E9000880F892B8093130280911202813061F4A4
:101EA00010921202809113028093BB008091BC00BB
:101EB00083FDF8CF85EC01C085EE8093BC00809156
:101EC00038028130E1F380913502861710F4609179
:101ED0003502A4E1B2E0E2EFF1E080E0861721F004
:101EE0009D9191938F5FFACF0895CF93C82F81E092
:101EF00080933902C0935B0210923A0210925C0206
:101F000084E692E00E946E0381E00E94B50E81118A
:101F10000FC061E08C2F0E94330F1092F10180936B
:101F2000F001882329F084E692E0CF910C942503F8
:101F30008FEF9FEFCF9108952091EF01211103C002
:101F40008FEF9FEF08955FB7F89422E02093E900A8
:101F50002091F20030E01216130614F421E030E074
:101F6000422FFC0184E6415038F028988093EE011E
:101F70009091F1009193F7CF2115310521F08091D7
:101F8000F200882319F05FBFC90108958BE68093A2
:101F9000E800F9CF2FB7F89483E08093E90090919F
:101FA000E800892F807295FF04C09091F20080E4D0
:101FB000891B2FBF08958091E70281110DC082E037
:101FC0008093E30284E08093E4021092E602109290
:101FD000E50281E08093E70283EE92E00895CF93DB
:101FE000DF93282F30E0F901E854FE4F8491F90186
:101FF000E756FE4FD491F901E658FE4FC491CC2329
:1020000091F081110E94530EEC2FF0E0EE0FFF1FB4
:10201000E459FE4FA591B491EC91ED2381E090E05D
:1020200021F480E002C080E090E0DF91CF9108953C
:102030001F93CF93DF93282F30E0F901E854FE4F30
:102040008491F901E756FE4FD491F901E658FE4F0D
:10205000C491CC23C1F0162F81110E94530EEC2F96
:10206000F0E0EE0FFF1FE25AFE4FA591B4919FB72B
:10207000F894111104C08C91D095D82302C0EC9132
:10208000DE2BDC939FBFDF91CF911F910895CF93FB
:10209000DF9390E0FC01E756FE4F2491FC01E658E7
:1020A000FE4F8491882361F190E0880F991FFC0115
:1020B000E05BFE4FC591D491FC01E25AFE4FA59121
:1020C000B491611109C09FB7F8948881209582234B
:1020D0008883EC912E230BC0623061F49FB7F89493
:1020E0008881322F309583238883EC912E2B2C937B
:1020F0009FBF06C08FB7F894E8812E2B28838FBF2F
:10210000DF91CF9108958091CB028F3F61F061E024
:102110000E94471060E08091CB020E9418108BE172
:1021200093E00197F1F708953FB7F8948091EA01A1
:102130009091EB01A091EC01B091ED0126B5A89B27
:1021400005C02F3F19F00196A11DB11D3FBFBA2F49
:10215000A92F982F8827820F911DA11DB11DBC01A9
:10216000CD0142E0660F771F881F991F4A95D1F76E
:1021700008958F929F92AF92BF92CF92DF92EF928B
:10218000FF926B017C010E9494104B015C01C11411
:10219000D104E104F104F1F00E949410DC01CB01C0
:1021A00088199909AA09BB09883E9340A105B10580
:1021B00070F321E0C21AD108E108F10888EE880E18
:1021C00083E0981EA11CB11CC114D104E104F104E8
:1021D00019F7DDCFFF90EF90DF90CF90BF90AF90D9
:1021E0009F908F90089580ED92E00E94630A811184
:1021F000FACF6AE070E080E090E00E94B91080EDD4
:1022000092E00E94630A8111EECF08952FB7F894EF
:102210006091E6017091E7018091E8019091E901F8
:102220002FBF08951F93CF93DF93182F10925E0254
:1022300010925D02289A209A88E39FEF0E94200E58
:1022400088E39FEF0E94F90D68EC70E080E090E079
:102250000E94B910C12F012E000CDD0B28EC1203D7
:10226000C00111240E94200E88E3282F2C9FC0015A
:102270002D9F900D9C1B11240E94F90D0E94DE16CB
:1022800028E030E040E050E00E9435179B01AC01AF
:102290002250310941095109ABE4B0E00E945417C2
:1022A000645D7E4F8F4F9F4F0E94B91080915D02F9
:1022B00090915E020197029718F0C8ECD0E002C03E
:1022C000C0E9D1E0CE010E94200ECE010E94F90D9E
:1022D0000E94061160936002709361028093620213
:1022E00090936302DF91CF911F9108950E9412197C
:1022F0001F920F920FB60F9211242F933F938F933B
:102300009F93AF93BF938091E6019091E701A091D5
:10231000E801B091E9013091600323E0230F2D37EC
:1023200020F40196A11DB11D05C026E8230F0296D9
:10233000A11DB11D209360038093E6019093E701F6
:10234000A093E801B093E9018091EA019091EB013B
:10235000A091EC01B091ED010196A11DB11D8093FA
:10236000EA019093EB01A093EC01B093ED01BF91D2
:10237000AF919F918F913F912F910F900FBE0F9032
:102380001F9018958091BC029091BD020E948918FF
:102390008091B2029091B3020E94891889E791E07E
:1023A0009093BF028093BE028091C8029091C902AF
:1023B000009711F00E9489188091C2029091C30287
:1023C000009711F00E9489188091C6029091C7026F
:1023D000009711F00E9489188091C0029091C1026B
:1023E000009711F00E9489188091C4029091C50253
:1023F000009711F00C9489180895FC011382128241
:10240000158214821782168280E090E0208131814B
:10241000821793075CF49C01220F331FA085B185BE
:10242000A20FB31F1D921C920196F0CF0895CF9377
:10243000DF93EFEEF2E01382128288EE93E0A0E0E9
:10244000B0E084839583A683B7832FE431E03183A2
:1024500020832FEF3FEF35872487E4E6F2E01382F5
:10246000128284839583A683B78381E691E091836A
:102470008083ECEDF2E013821282148285E891E011
:1024800091838083E0EDF2E01282158210868EE067
:10249000818781E0828783878FE791E091838083C2
:1024A000EEEBF2E0138212821582148217821682FA
:1024B000118610861386128683E791E091838083CC
:1024C00086E0EFE3F1E0A2E8B2E001900D928A9598
:1024D000E1F786E0E5E4F1E0ACE7B2E001900D92CF
:1024E0008A95E1F7E0E7F2E084E090E0928F818F57
:1024F00014A613A615A6C3E0D0E0D3AFC2AF86E002
:1025000090E00E94F1179093B3028093B2028AEA9E
:1025100092E00E94FD11D093B502C093B40286E010
:1025200090E00E94F1179093BD028093BC0284EB6F
:1025300092E0DF91CF910C94FD11CF93DF9300D007
:1025400000D000D0CDB7DEB7789484B5826084BD6A
:1025500084B5816084BD85B5826085BD85B58160A7
:1025600085BD80916E00816080936E001092810025
:1025700080918100826080938100809181008160E0
:1025800080938100809180008160809380008091A1
:10259000910082608093910080919100816080938E
:1025A0009100809190008160809390008091C100A3
:1025B00084608093C1008091C10082608093C100DB
:1025C0008091C10081608093C1008091C3008160CF
:1025D0008093C3008091C00082608093C00080918E
:1025E000C20081608093C20080917A0084608093F1
:1025F0007A0080917A00826080937A0080917A00DC
:10260000816080937A0080917A00806880937A005C
:102610001092EF011092400310923F038091D70077
:1026200081608093D70080EA8093D80089B580616B
:1026300089BD89B5826089BD09B400FEFDCF61E026
:1026400070E080E090E00E94B9108091D8008F7C0B
:1026500080618093D8008091E000807F8093E000CB
:102660008091E1008E7E8093E1008DE08093E20016
:10267000559A209A85E0E1E9F1E0DE01119601909A
:102680000D928A95E1F71092C1021092C002109249
:10269000C3021092C2021092C5021092C40210929C
:1026A000C7021092C6021092CF021092CE0285E0AD
:1026B0008093CA028091C8029091C902892B11F0BF
:1026C00080E00BC085E090E00E94F1179093C90272
:1026D0008093C802892BA1F719C09091CA0289176B
:1026E00090F4282F30E0E091C802F091C902E20F87
:1026F000F31FA1E0B0E0AC0FBD1FA20FB31F9C9170
:1027000090838F5FEACF8BE08093CB0280ED97E0E0
:102710009093CD028093CC021092F1011092F001BF
:1027200010923A0210925C021092380281E080937B
:1027300037021092120261E082E00E94181061E0FC
:1027400083E00E9418108091B9008E7F8093B900B9
:102750008091B9008D7F8093B90088E48093B800A0
:1027600085E48093BC0083E193E0909344038093DD
:10277000430384E193E090934203809341036FE02D
:1027800070E08DE10E94750F8934910561F06FE072
:1027900070E08EE10E94750F8934910509F07CC0CC
:1027A00020E030E002C021E030E083E090E0909350
:1027B0008A02809389028230910509F441C08330F6
:1027C000910521F0019709F062C02FC02130310539
:1027D00011F08EE101C08DE180938C0280938B0219
:1027E00088E090E0909392028093910289E090E0DB
:1027F0009093900280938F028AE090E090939602EB
:10280000809395028BE090E09093940280939302E2
:102810008CE090E090939A02809399028DE090E092
:10282000909398028093970275C02130310541F052
:1028300088E107C082E090E090938A028093890249
:1028400089E180938B028EE180938C0283E090E09B
:102850009093900280938F0284E090E09093920294
:102860008093910287E090E090939402809393028A
:1028700088E090E0909396028093950285E090E046
:10288000909398028093970286E090E03FC02130B9
:102890003105B1F088E115C060E270E089E10E9485
:1028A000750F019609F428C26FE070E08EE10E9476
:1028B000750FCC9709F4BECF10928A02109289024C
:1028C00089E180938B028EE180938C0283E090E01B
:1028D0009093900280938F0284E090E09093920214
:1028E0008093910285E090E090939402809393020C
:1028F00086E090E0909396028093950287E090E0C6
:10290000909398028093970288E090E090939A02C7
:102910008093990267E280E20E94110F8091890200
:1029200090918A02029721F468E083E20E94110FDD
:102930000E94061188279927611571058105910567
:1029400011F00E942C17479A3F9A109245038091EC
:102950001501882339F08091480390914903892B10
:1029600009F09FC1809148039091490380E00E9443
:10297000CD0730E0C32E30E0D32EAA24A394B12C8F
:1029800080ED92E00E94630A882369F080E090E085
:102990000E94200E80E090E00E94F90D0E94F3104A
:1029A00081E00E94CD070E9406112B013C0160933B
:1029B0005C0370935D0380935E0390935F0380914B
:1029C0008B0291E09093390280935B0210923A025D
:1029D00010925C0268EA84E692E00E946E0381E055
:1029E0000E94B50E8093880266E080918B020E945F
:1029F000330F1092F1018093F0010E9406118B01B8
:102A00008091F00190E02091F101821B91090697DD
:102A1000ACF480919B0290919C02892B89F30E94D7
:102A20000611601B710B80919B0290919C0286178E
:102A3000970730F781E080939D0234C084E692E0EE
:102A40000E942503882E84E692E00E9425038E834F
:102A500084E692E00E942503082F84E692E00E941B
:102A60002503982E84E692E00E942503182F84E621
:102A700092E00E9425033E80212C91012829309369
:102A8000710220937002F92CE12C9701202B3093D6
:102A9000730220937202982F8827812B90937502DE
:102AA0008093740260917002709171022091A20271
:102AB0003091A302809172029091730262177307A2
:102AC00039F42091A4023091A50282179307E1F016
:102AD00040929E0250929F026092A0027092A102C8
:102AE0007093A3026093A2029093A5028093A40224
:102AF0008AEA92E00E9496076091A4027091A50272
:102B000084EB92E00E9496078091CB028F3F61F0A8
:102B100061E00E94471061E08091CB020E94181092
:102B20008BE193E00197F1F762E573E08EEB92E0C1
:102B30000E94860A0E94831080915D0290915E023D
:102B40000297E9F480915C0390915D03A0915E038C
:102B5000B0915F0340914E0350914F036091500339
:102B600070915103841B950BA60BB70B8B3F9105FE
:102B7000A105B10520F0B0925E02A0925D028091A5
:102B8000520390915303883E934010F481E008C0B3
:102B900080915A0390915B03883E934020F48FEF1D
:102BA0000E94121177C0E091AC02F091AD02309713
:102BB00041F08091B0029091B102BF010E94C8170C
:102BC000FB014091B6025091B7024115510541F009
:102BD0008091BA029091BB02BA010E94C817AB0162
:102BE0009F01DF010E94E2172B013C019A01DA01EB
:102BF0000E94E217460E571E681E791E31E04316EA
:102C000034EE530637E56306710494F180915C035A
:102C100090915D03A0915E03B0915F0340916002CB
:102C20005091610260916202709163028C019D017A
:102C3000041B150B260B370BB901A8014139514074
:102C400061057105A8F040914A0350914B036091D2
:102C50004C0370914D038C019D01041B150B260B39
:102C6000370BB901A801493E534061057105E0F4F5
:102C700080915D0290915E020197029718F008EC36
:102C800010E002C000E911E0C8010E94200EC80156
:102C90000E94F90DC114D10409F472CE0E94000003
:102CA0006FCE0E94AA045ECE80934A0390934B039A
:102CB000A0934C03B0934D0322E030E030935E02CA
:102CC00020935D0280934E0390934F03A093500393
:102CD000B09351031092720087ED91E090934903F5
:102CE0008093480381E080934703109246030E943B
:102CF000AA042898209ABCCF60E270E088E10E9484
:102D0000750F019609F406CE6FE070E08EE10E9427
:102D1000750F31E020E0CC9709F030E0832F922F3F
:102D200020E030E044CD8F929F92AF92BF92CF923D
:102D3000DF92EF92FF92CF93DF93EC01688179816C
:102D40008A819B81611571058105910521F464E2F9
:102D500079ED8BE597E02DE133EF41E050E00E9403
:102D6000351749015A019B01AC01A7EAB1E40E9461
:102D700054176B017C01ACEEB4EFA50194010E94E5
:102D80006217DC01CB018C0D9D1DAE1DBF1DB7FF71
:102D900003C00197A109B04888839983AA83BB83A4
:102DA000BC01CD019F77DF91CF91FF90EF90DF9035
:102DB000CF90BF90AF909F908F9008958F929F92E9
:102DC000AF92BF92CF92DF92EF92FF926091160185
:102DD0007091170180911801909119016115710589
:102DE0008105910521F464E279ED8BE597E02DE111
:102DF00033EF41E050E00E94351749015A019B0131
:102E0000AC01A7EAB1E40E9454176B017C01ACEE5F
:102E1000B4EFA50194010E946217DC01CB018C0D77
:102E20009D1DAE1DBF1DB7FF03C00197A109B0488E
:102E30008093160190931701A0931801B093190184
:102E4000BC01CD019F77FF90EF90DF90CF90BF90B6
:102E5000AF909F908F900895609316017093170123
:102E600080931801909319010895052E97FB1EF485
:102E700000940E944C1757FD07D00E94671707FC6B
:102E800003D04EF40C944C175095409530952195F5
:102E90003F4F4F4F5F4F0895909580957095619586
:102EA0007F4F8F4F9F4F08950E948917A59F900DC8
:102EB000B49F900DA49F800D911D11240895B7FF1C
:102EC0000C9454170E945417821B930B0895A1E28F
:102ED0001A2EAA1BBB1BFD010DC0AA1FBB1FEE1F94
:102EE000FF1FA217B307E407F50720F0A21BB30BDF
:102EF000E40BF50B661F771F881F991F1A9469F75B
:102F000060957095809590959B01AC01BD01CF01B6
:102F10000895A29FB001B39FC001A39F700D811DB2
:102F20001124911DB29F700D811D1124911D0895D2
:102F3000DB018F939F930E945417BF91AF91A29F83
:102F4000800D911DA39F900DB29F900D11240895A7
:102F5000991B79E004C0991F961708F0961B881FEB
:102F60007A95C9F780950895AA1BBB1B51E107C04C
:102F7000AA1FBB1FA617B70710F0A61BB70B881F09
:102F8000991F5A95A9F780959095BC01CD01089598
:102F900097FB072E16F4009407D077FD09D00E9406
:102FA000B41707FC05D03EF4909581959F4F089586
:102FB000709561957F4F0895EE0FFF1F0590F49176
:102FC000E02D09940E948917332312F48A1B9B0B6E
:102FD0000C94EC170E948917B7FF0895821B930B7E
:102FE00008950F931F93CF93DF938230910510F4D0
:102FF00082E090E0E0916303F091640320E030E030
:10300000A0E0B0E0309719F1408151810281138135
:1030100048175907C8F08417950769F4109731F0DD
:1030200012960C93129713961C9327C00093630378
:103030001093640322C02115310519F0421753077C
:1030400018F49A01BD01EF01DF01F801DBCF211572
:103050003105F9F0281B390B2430310580F48A81C1
:103060009B816115710521F0FB019383828304C06C
:103070009093640380936303FE01329644C0FE0183
:10308000E20FF31F819391932250310939832883F2
:103090003AC02091610330916203232B41F42091C7
:1030A0001C0130911D013093620320936103209134
:1030B0001A0130911B012115310541F42DB73EB79E
:1030C00040911E0150911F01241B350BE0916103BB
:1030D000F0916203E217F307A0F42E1B3F0B2817B1
:1030E000390778F0AC014E5F5F4F2417350748F081
:1030F0004E0F5F1F5093620340936103819391933E
:1031000002C0E0E0F0E0CF01DF91CF911F910F917D
:103110000895CF93DF93009709F481C0FC013297A3
:1031200013821282A0916303B0916403109781F41B
:1031300020813181820F931F2091610330916203BE
:103140002817390751F5F0936203E093610367C0D4
:10315000ED0120E030E0CE17DF0740F44A815B81CB
:103160009E0141155105F1F0EA01F5CFD383C283E9
:1031700040815181840F951FC817D90759F4888160
:103180009981840F951F0296918380838A819B8108
:10319000938382832115310529F4F0936403E0932E
:1031A00063033DC0E901FB83EA8349915991C40F50
:1031B000D51FEC17FD0761F480819181840F951F65
:1031C0000296E90199838883828193819B838A8314
:1031D000E0E0F0E012968D919C911397009719F022
:1031E000FD01DC01F7CF8D919C9111979D012E5F20
:1031F0003F4F820F931F2091610330916203281784
:10320000390769F4309729F410926403109263032C
:1032100002C013821282B0936203A0936103DF9114
:10322000CF91089581E090E0F8940C94171911E083
:10323000C2E0D1E004C0FE010E94DC172196C33039
:08324000D107C9F7F894FFCF94
:103248000F00F401D007040004FFFFFFFF00E100B6
:1032580000000000000101000000000065032000DC
:103268009C01B501CF01EA01070226024702690263
:103278008E02B502DE020A0300C18081000000014F
:103288008001800180FF7FFF7FFF7F000000000D2D
:103298000997091D0A23092E09450A210A00000079
:1032A800006E034103A10315033903250316030028
:1032B800000000860A00000000761100000000638C
:1032C8000A00000000200B270BA103A0039D03A404
:0832D80003121415040C0000A0
:00000001FF
